S02B0000433A2F55736572732F67617569622F53696D706C696369747953747564696F2F76365F776F726B73A1
S214012000C80A0020C92A0100BB090300BB09030056
S21401201059240300BB090300BB090300BB090300E5
S214012020BB090300BB090300BB090300BB0903008E
S214012030BB090300F8EC03000B250300BB090300F2
S214012040BB090300BB090300BB090300BB0903006E
S214012050BB090300BB090300BB090300BB0903005E
S214012060BB090300BB090300BB090300BB0903004E
S21401207089920100BB090300BB090300BB090300E9
S214012080BB090300BB090300BB090300BB0903002E
S214012090BB09030085330100BB090300BB0903002C
S2140120A0BB090300C52F0100A52F0100BB090300D2
S2140120B0BB0903002DB80200BB09030091C2020050
S2140120C0C5AE0300C1AE03006DBA0200DBAE03006D
S2140120D0C9AE030061C20200CDAE0300D1C2020048
S2140120E0A5990200699B02003DC30200BB090300DB
S2140120F0BB090300BB090300BB090300BB090300BE
S214012100BB090300BB090300BB090300BB090300AD
S214012110BB090300BB090300BB090300BB0903009D
S214012120BB090300BB090300BB090300BB0903008D
S214012130BB090300BB090300D9A70100F73A030056
S21401214082B030BF074BD3F8F030DB0704D500234D
S2140121500193019B052B01DD02B07047019B013302
S214012160F6E700BF00ED00E0F0B5114A114C124E43
S21401217000F00105E3695F0713D40DB9334213D1AB
S21401218003EA00078F4207D10B4A1A40002A0CBF08
S21401219000206FF00100F0BD013AEBD16FF00200B4
S2140121A0F9E74FF0FF30F6E76FF00100F3E700BF05
S2140121B08096980000000350020001000B4B70B59A
S2140121C0D96911F480310DD101244FF48072084E83
S2140121D0084DF46020462C641A61FFF7C5FF34648D
S2140121E0EC6070BD6FF00100FBE700BF000003501C
S2140121F000100350002003504FF4003238B50F4B47
S2140122000F4C9A6641F671330122E569E3630D4B83
S2140122100021DA60022360612120236105F4803504
S214012220FFF7A2FF10B92120FFF79EFF0122064B00
S214012230DA600DB10023E36338BD00BF00900050A3
S21401224000000350001003500020035070B5134CDB
S2140122506061E3695B071ED40E4656F8043B8D1891
S214012260A361AE420BD10423002121202361FFF795
S2140122707BFF58B9BDE870402120FFF775BF0821E4
S2140122800846FFF771FF10B10423236170BD56F8AD
S214012290043BA361E5E74FF0FF30F7E7000003508A
S2140122A02DE9F84315464FF40032184B89469A66D5
S2140122B041F6713203F51C33DF69DA630122064603
S2140122C003F58053DFF84C8007F48037DA6055B9A0
S2140122D0284601220E4BDA601FB10022A3F50053F7
S2140122E0DA63BDE8F88306F5005404EA0804A41B83
S2140122F0AC4228BF2C46494622463046FFF7A6FF89
S2140123000028E6D12644A1442D1BE0E700900050AA
S2140123100020035000E0FFFF000000000000000066
S214012320013800D0FCE7704707B588B10BA3D3E9A5
S21401233000230949C1E90223CDE900234FF0FF320A
S2140123404FF0FF33086928F043F803B05DF804FB4B
S21401235000220023EDE700BF500B00200DD50155EC
S214012360200000000348044B834202D0034B03B114
S214012370184770474C2F00204C2F0020000000000B
S214012380064B0749C91A891048BF0131491003D0C5
S214012390044B0BB101481847704700BF4C2F002073
S2140123A04C2F00200000000010B5064C237843B9DE
S2140123B0FFF7D8FF044B13B10448AFF300800123A5
S2140123C0237010BD9428002000000000043704008C
S2140123D008B5054B1BB105490548AFF30080BDE8BC
S2140123E00840FFF7CDBF00BF00000000A80D002089
S2140123F004370400A3F5803A704700BF174B002B43
S21401240008BF134B9D46FFF7F5FF00218B460F468D
S2140124101348144A121A21F09AFC0E4B002B00D0D6
S21401242098470D4B002B00D0984700200021040050
S2140124300D000D48002802D00C48AFF3008008F0CC
S21401244039FD2000290021F058FB08F0D9FB00BF18
S214012450000008000000000000000000C80A00207C
S214012460C80A0020C029002000000000000000006B
S214012470044B834205D1044B1B7813B1C8B212F04A
S214012480D5BE7047C00D00209528002030B5002528
S2140124900368354A23F47F4323F0070385B093424C
S2140124A004460295ADF80C5038D002F1C06202F530
S2140124B0802293420BD02D4A934253D12C4B1B784A
S2140124C0002B4FD005B0BDE8304020F01AB8B0F868
S2140124D005301B2B46D1FF2304A91A4611E9030038
S2140124E01EF004FA012814BF41F2FC15204B4FF0F0
S2140124F01B0108BF187005F0FC02207910F020F8C7
S21401250008B100BEFDE71B49009023791A4A096805
S2140125101A4800F071F828B300BEFDE7B0F80530A0
S214012520B7EE047A07EE903AF8EE677AB0F807301D
S21401253067EE877A013307EE103AB8EEC77A67EE90
S214012540877AB1EE047A67EE877AFAFE677AFCEE4E
S214012550E77A17EE903AB3F57A7F38BF4FF47A737D
S214012560044A136005B030BDA0000602A0000601B3
S21401257095280020AC2B002071240100C00D0020FE
S21401258038B505462CF01AF900230B4A14685CB1DD
S214012590AC4206D1A96A6BB199622CF00AF9012006
S2140125A007E02346A46AF2E7002DF3D02CF001F9E8
S2140125B0204638BD1160F0E7F80D002010B504463E
S2140125C0B0B12BF0B3FE2046FFF7DAFF10B194F856
S2140125D02C300BB9002010BD064C2368002BF9D017
S2140125E02CF0ECF82368013B23602CF0E2F8F1E7CD
S2140125F02220F0E7FC0D00202DE9F04385B00546CA
S214012600914698460E469DF8307009B9002F5CD168
S2140126102846FFF7D3FF0446002836D185F82C005C
S214012620686306F0EFFD864233D92BF013FF21468F
S214012630844640F2E7304FF47A720023E6FB0C0141
S21401264008F04EF94FF0FF32002308F049F92B4607
S214012650E88611462846CDE900441D4A2CF082FA48
S214012660044690B9C5E9089885F82D702E632CF0BC
S214012670A5F8184A136833B31A469B6A002BFBD198
S21401268095620023AB622CF094F8204605B0BDE8B5
S214012690F08347B12B4631462846CDE900440C4A23
S2140126A02BF02AFFDCE7304603A92BF0D9FE0446BF
S2140126B00028EAD12B462846CDE90077044A03993B
S2140126C02CF02CFACCE71560DBE72124DDE700BF10
S2140126D0D9260100F80D002091F82C3013B50C46D0
S2140126E083B98B8ECA8E93420ED243B9CDE900339D
S2140126F020460B46124A4FF0FF312CF0F3F9A38E19
S2140127000133A38602B010BD52B191F82D3093B1BA
S21401271001230093D1E908232046096BFFF76CFFDC
S214012720012384F82C30074B1A6801321EBF1A6841
S21401273001321A60E6E708462BF0F8FDF0E700BF25
S214012740D9260100FC0D00202DE9F041154E336815
S21401275033B34FF00008144F2CF030F805463C68B0
S21401276024B92846BDE8F0412CF023B894F82C3063
S214012770A3B1336884F82C8013B13368013B33600E
S21401278094F82D3013B92046FFF7FAFE28462CF0B0
S21401279010F8D4E9083120469847DDE7A46ADFE758
S2140127A0BDE8F081FC0D0020F80D0020034B1B68EE
S2140127B0002B14BF04200120704700BFFC0D002031
S2140127C0024B1868B0FA80F040097047FC0D0020F3
S2140127D07FB54FF480630022ADF80430ADF80830C1
S2140127E0ADF80C30134B08281B88ADF81420ADF853
S2140127F0103019D007DC01280CD0022811D00E2089
S21401280007B05DF804FB202811D04028F7D1042139
S21401281005A802E004210DEB010000F0A5FA002056
S214012820EEE7042102A8F8E7042103A8F5E704214E
S21401283004A8F2E7D0EC030008B504482CF0D2F85F
S21401284021F007F9BDE8084000F03CB8C8EE0300E7
S21401285001482CF0C7B800BFC8EE030013B5082026
S2140128601EF0B9F807F0DEFF0123144C009390F830
S21401287036302060FBB900681EF072FF236820F036
S2140128807F4093F83530023B012B94BF032300238E
S21401289040EA8370019068461EF031F80222084B28
S2140128A06846CDE900231EF02AF8082002B0BDE8EC
S2140128B010401EF09BB80020E0E700BF000E00208D
S2140128C0006A18102DE9F043494E4FF002093546CB
S2140128D08DB005AC0FCD0FC495E807000125B38B6D
S2140128E0DFF82081ADF80430F38B368C84E80700DE
S2140128F04048414FADF80830ADF80090ADF80C6097
S2140129002CF070F840462CF06DF83C4B384605A983
S21401291007938DF8225004F031F92A4604216846BF
S21401292000F022FA2946002201A800F01DFA2A46E4
S214012930042102A800F018FA2A46042103A800F090
S21401294013FA4FF002132E4C4FF44870C4F8303689
S214012950A3F58033C4F82C361C23C4F83496C4F887
S2140129601C3606F0ABFC04A8ADF8106000F05CFA6B
S214012970142006F0A3FC04A8ADF8106000F028FAB5
S214012980232006F09BFC04A8ADF8106000F04CFA7A
S214012990B92138461EF014FF04A8ADF8106000F007
S2140129A017FA00226846114600F0DEF9002201A857
S2140129B0114600F0D9F92A46002102A800F0D4F900
S2140129C02A46002103A800F0CFF9384604F02EF875
S2140129D000234046C4F81C36C4F83036C4F82C36FA
S2140129E0C4F834362CF001F80DB0BDE8F08300BF12
S2140129F0D4EC0300C8EE030000C0055000127A00B4
S214012A0000C00350BCEE030000239B6AB3F5903F61
S214012A1003D21968064A914203D0002303708360EB
S214012A207047012202709A689B694260F7E700BF0F
S214012A3007B0CD5E00239B6A10B5B3F5903F11D267
S214012A4019680A4A91420DD1094C227812F0FD0FFD
S214012A5001D0002010BDDB6998470028FAD1012378
S214012A602370F6E74FF48170F4E700BF07B0CD5E40
S214012A7096280020024B034A1A601EF08DBF00BF45
S214012A800000002002020FF0BFF34F8F0549064BEE
S214012A90CA6802F4E0621343CB60BFF34F8F00BFF6
S214012AA0FDE700BF00ED00E00400FA050348044A14
S214012AB00449121A92101DF081BF00BF4021010087
S214012AC020230100C029002008B5154B83F30A888E
S214012AD000F030F8FFF7EAFF124B13498B4212D38E
S214012AE00020124B12498B4218D3FFF787FC186857
S214012AF050F82240586840F82240013298688242D5
S214012B00F5D30C33EAE70022F8E71C6844F8220004
S214012B1001325C68A242F8D30833E4E70022F8E702
S214012B20080000200C37040018370400183704008A
S214012B30183704004FF40041134B144A70B59A60DD
S214012B40D3F88820124D42F47002C3F88820114A47
S214012B5005F5005491664FF0FF3222664FF6DF729C
S214012B6062660222C3F8D020BFF34F8FBFF36F8F88
S214012B704FF44036032005F031FB0320E66005F0F4
S214012B80E7FA2E6170BD00BF00ED00E000200100F5
S214012B900080004400900050014B1860704700BF51
S214012BA0B42B0020054B1860054B1B6F03F0070381
S214012BB0032B01D12AF0D2BC704700BFBC2B0020EA
S214012BC000800050002307B5294801932BF00AFF27
S214012BD04FF44073012204216846ADF8003000F03E
S214012BE0C3F80122234B0520C3F8442401A92BF086
S214012BF0F4FE002839D1204BD3F8F02042F0010230
S214012C00C3F8F020D3F8FC2042F08072C3F8FC2011
S214012C101A4AA3F55D431A60019B194A03F5D523A9
S214012C2003F2FC43B3FBF2F3164A013B13610223A2
S214012C30C2F8F0304FF48073C2F804334FF06043AB
S214012C40114AC3F8B02F114AC3F8802ED3F8002ECC
S214012C5042F48072C3F8002EFF2283F82020D3F8B6
S214012C60002E22F48072C3F8002E03B05DF804FB38
S214012C70C8EE030000D0035000ED00E0FF03004063
S214012C80F8590D00000004E055CEACC5090001005E
S214012C904FF06043D3F8802E30B5D20715D5012406
S214012CA00B4D8440D5F8FC2042F08072C5F8FC201C
S214012CB0D3F8002E2243C3F8002E53F82020002A12
S214012CC0F0D003F82010002030BD1120FCE700BF33
S214012CD000ED00E02DE9F04104460C254FF0010817
S214012CE0124E0CB314F001000BD0002024F00104A6
S214012CF005FB00625768002FF3D09168C0B2B84751
S214012D00EFE72246013020284FEA520201D0D307CE
S214012D10F8D508FA00F20F2824EA0204E8D9103898
S214012D2005FB0062B432E5E7BDE8F081040E002041
S214012D3008B50C482BF056FE192005F017FA28B1F5
S214012D40192005F04BFA192005F002FA1A2005F0B1
S214012D500DFA28B11A2005F041FA1A2005F0F8F903
S214012D60002008BDC8EE03002DE9F0410E461746C7
S214012D70054610B30F2922D80378DBB1013BDBB23D
S214012D80022B1CD8104AD35C6A78D340DB0716D5D1
S214012D900E4BD3F81043A4B92BF010FD80463A46EB
S214012DA02846314603F04AFF40462BF002FD2046F6
S214012DB0BDE8F08140F2FF13E6E72224F7E721247D
S214012DC0F5E70224F3E700BF48ED030000C0035017
S214012DD010B5044608B30378E3B1013BDBB2022B1E
S214012DE01DD8104AD35C6278D340DB0717D52BF089
S214012DF0E5FC0122617823788A4030214B4341F279
S214012E00100103F1A04303F570335A502BF0D1FCA7
S214012E10002010BD40F2FF13E5E72220F9E721204C
S214012E20F7E700BF48ED030010B5044608B3037882
S214012E30E3B1013BDBB2022B1DD8104AD35C6278AA
S214012E40D340DB0717D52BF0B9FC01226178237834
S214012E508A4030214B4342F2100103F1A04303F5AF
S214012E6070335A502BF0A5FC002010BD40F2FF1322
S214012E70E5E72220F9E72120F7E700BF48ED030048
S214012E8038B50D46044610B309B30378E3B1013BE8
S214012E90DBB2022B1DD8104AD35C6278D340DB0725
S214012EA017D52BF08BFC30222378534303F1A04334
S214012EB003F570335B696278D34003F001032B702E
S214012EC02BF077FC002038BD40F2FF13E5E7222007
S214012ED0F9E72120F7E700BF48ED03002DE9F041AF
S214012EE00D46164698460446002851D000294FD074
S214012EF00378002B42D05A1ED2B2022A03D9FF2BE6
S214012F0007D0212042E0234B9B5C4278D340DA076E
S214012F10F7D5022E01D9042EF3D12BF04FFC2378DE
S214012F200746FF2B05D032462046296803F0CCFE23
S214012F3028602B68013309D12378FF2B06D1164B65
S214012F406078D3F824141EF067FC286029684B1CAF
S214012F5018D00C23114A03FB0122069BC2F80480F9
S214012F6093602378FF2B04D001230D4A8B40C2F8CF
S214012F70243438462BF01DFC002007E040F2FF13F6
S214012F804278C3E738462BF014FC2D20BDE8F081CB
S214012F902220FBE748ED030000C00350040E00208A
S214012FA000D0035008B503F03FFE054B00F0553046
S214012FB020F05020C3F82004BDE80840FFF78ABE81
S214012FC000E0035008B503F02FFE054B00F0AA30D1
S214012FD020F0A020C3F82004BDE80840FFF77ABE21
S214012FE000E003502DE9F04F9A46564B85B01B780A
S214012FF006460F461546DDF83C909DF844B0DDF8D0
S2140130005080002B00F09780072A00F296800E9BD6
S214013010002B00F09280B9F1000F00F08E80129B19
S214013020B3F5006F00F38980012803D1109B002BB4
S21401303000F08380444B03EB05131B7B002B7ED0F3
S214013040424C10220021684620F081FE04EB451414
S2140130501022A7BB3946204620F079FE43F2100322
S2140130606380BBF1000F03D1E37843F00303E37001
S214013070364A0E9B02EB451CCCE90193129B690173
S214013080581E9DF84C30C0F30A0003F003039B065C
S21401309043EA001E53582E48012E00EA03004EEA6A
S2140130A00003CDF800A0535017D0B8F1000F2ED171
S2140130B09CF8023068F304138CF8023027E00021F4
S2140130C0204620F044FE4FF444736380BBF1000FAA
S2140130D0CED1E37843F03003C9E713230CF1100E89
S2140130E0CCF80C309CE80F008EE80F006FF003015F
S2140130F0DCF81C20109B61F39F02012FCCF81C20EA
S214013100CCF8143003D1CCF81890CCF80430002752
S2140131100D4A290102EB051342F80180159A28464B
S2140131205A60694622469F605E7303F0E5FA3846A8
S21401313005B0BDE8F08F0748FAE70748F8E7074803
S214013140F6E700BF972800206C1000206C0F0020C7
S2140131500F80FFF3028000F0018000F0078000F08E
S21401316038B5124B05461B78DBB1E0B12BF026FBD8
S2140131700F4A00231146147B54B92B6001251A010E
S21401318001EB03131D738C502BF013FB204638BD47
S2140131900133082B02F11002EDD12BF00AFB054892
S2140131A0F5E70548F3E70548F1E700BF9728002053
S2140131B06C100020048000F0028000F0018000F016
S2140131C038B52BF0FBFA002305460B4A147B6CB985
S2140131D00133082B02F11002F8D103F039FA074B3C
S2140131E028461C702BF0E5FA204603E028462BF013
S2140131F0E0FA034838BD00BF6C1000209728002075
S214013200058000F00D4B10B51B78044693B10728D6
S21401321012D82BF0D3FA0A4B03EB04131A7B2AB10C
S21401322000241C732BF0C5FA204610BD2BF0C1FA02
S2140132300448FAE70448F8E70448F6E79728002028
S2140132406C100020068000F0028000F0018000F083
S214013250154B13B51868002301908DF804302BF038
S214013260ADFA124B1C7824B12BF0A3FA104802B029
S21401327010BD01221A702BF09CFA0E4B01A81C738C
S2140132801C7783F82C4083F83C4083F84C4083F845
S2140132905C4083F86C4083F87C4008238DF8073047
S2140132A003F0FAF92046E2E74BED030097280020E9
S2140132B0038000F06C100020F8B50D4D2D7885B117
S2140132C0072810DC0B4D060105EB0014277B67B1C0
S2140132D0AB510025069BA560636003F00DFA2846F6
S2140132E0F8BD0548FCE70548FAE70548F8E700BFDA
S2140132F0972800206C100020028000F0018000F06A
S214013300078000F00A4A08B512785AB107280BD888
S214013310084A02EB00131B7B43B1002103F0AEF910
S214013320002008BD0448FCE70448FAE70448F8E72B
S214013330972800206C100020028000F0018000F029
S214013340078000F00A4A08B512785AB107280BD848
S214013350084A02EB00131B7B43B1012103F08EF9EF
S214013360002008BD0448FCE70448FAE70448F8E7EB
S214013370972800206C100020028000F0018000F0E9
S214013380078000F0184B2DE9F0411F6D5B6D1F4063
S21401339000D5FEE701260025144CDFF85880374299
S2140133A018D02368C8F85060A3B1A1682846013137
S2140133B06268A1609847637B012B0BD150B90C4B17
S2140133C003EB45131A7B60F341021A731A7F60F30D
S2140133D041021A770135082D4FEA460604F110041A
S2140133E0DDD1BDE8F08100BF000004506C10002064
S2140133F06C0F0020002004502DE9F04F14460546BE
S2140134000E469B46C36B87B001225B6902A96068C2
S2140134109847EB6B01225B6903A93046984702A8DF
S2140134201DF021FF074648B10023A37563754FF0D1
S214013430FF33A360002007B0BDE8F08F03A81DF09E
S2140134401FFF0123A375237E04EBC303DE611F84E4
S2140134506368B3420ED1206003A81DF033FF4FF01E
S214013460FF332075A360237D043B022B26D800235F
S214013470A375DFE723681A1A53425341A37503A8BD
S2140134801DF020FF237D834218BFA77503A81DF0FA
S214013490FBFE074602A81DF0F7FE874218BF002371
S2140134A003A818BFA3751DF0F7FE074602A81DF076
S2140134B0F3FE87421CBF0023A375D4E703A81DF0C3
S2140134C0E3FE80B1EB6B022230465B6904A99847A4
S2140134D004A81DF0E8FE0346207D032839D8DFE85E
S2140134E000F03838040903A8F3E7CC22237E04EB66
S2140134F0C3031A8401F0EAFA109B187003A8277E0A
S2140135001DF0B6FE04EBC70787F82200237E03A84A
S21401351004EBC303B3F8209093F822701DF0B4FEB9
S214013520804603A81DF0B8FE8246B8F1000F15D0FC
S214013530EB6B022230465B6904A9984704A81DF08C
S21401354077FE6075637D6BB90023A3754FF00008A5
S21401355038E0227E04EBC2021384CBE703A81DF0F9
S21401356052FEEEE794F81680B8F1000FEED0B9F1EE
S214013570000F09D1DFB10123E375637E002B4FD124
S214013580012F42D1677614E06B6C06EB0A025942B2
S21401359086EA020008421CBF0021A175591E0A4096
S2140135A09B1A9945D0D8A37D002BE3D1CEE7E37DC6
S2140135B043B94FF000084B465246314628461DF0A7
S2140135C090FBA060A27D12B123694B4423611A4986
S2140135D0237E097899422AD901332376BBF1000F5D
S2140135E027D032B3E37D23B3B8F1000F21D1032FE7
S2140135F01FD0A1684B1C1CD0109B22460093284666
S2140136000123FFF7F9FEA07513E095F8343063B98E
S214013610EB6A0133CFD1032FCDD10123A376C8E7BF
S214013620012FCFD0032FC4D1F7E79846C3E7002375
S214013630A375A07DFFE600BF70ED03002DE9F04FF6
S2140136400E46984600238BB004464FF0FF311046D5
S21401365017468DF8133001F023FAB6F5801F3BD3D9
S214013660B21C53D1E56A6B1C57D12046616A1DF026
S2140136707EFA0546B31C18BF0123DFF810910193AB
S214013680636A626C0293236805A902FB053AE36B41
S21401369005225B695046984705A81DF07FFE1DF080
S2140136A0A2FE50461DF0AAFE4FF0000B82460146D0
S2140136B04B1C05D0636C81EA0A025B42134232D08E
S2140136C0294620461DF053FA029BAB424DD0BBF172
S2140136D0000F4DD10546D3E7314605AA04F108008F
S2140136E01DF00FFD0146481C10D0384601F0D8F9F0
S2140136F00122394620460DF113031DF044FB28B183
S2140137009DF8133088F80030002003E0237C002B5E
S214013710A8D12D200BB0BDE8F08F2368ED1A636C9D
S214013720B5FBF3F5A6E7484601F0BAF90DF1130328
S21401373049462046019A1DF026FB034690B1B21C6D
S21401374003D0D9F80020B2420CD19DF81320039380
S2140137500D4B88F8002049461A68384620F002FBCF
S214013760039B9B46D9F80810A2E7BBF1000FD0D007
S214013770B6F5801FC8D2314698F800307A6804F151
S214013780080001F0BBF8BFE76CED030060170020EE
S2140137902DE9F3410446174698460E46194D816AAF
S2140137A0E36A8B422AD04B1C18E0284601F078F9D0
S2140137B00122294620460DF107031DF0E4FA30B137
S2140137C04346294620469DF80720B847B0B1A96868
S2140137D04A1C05D0012E0AD0E36A9942E5D10DE0D4
S2140137E0696820461DF050FA012E0146D8D16B6853
S2140137F081EA0302636C5B421A42D1D002B0BDE893
S214013800F08100BF341700202DE9F04F4FF0FF3351
S2140138104FF6FF720025044600F10806C0E90923A9
S2140138208BB0C3620562056330460F461DF03AFC55
S21401383020461DF06CF920BB204639461DF0E7F9FD
S21401384020461DF064F920BB5E200BB0BDE8F08F6A
S214013850E26B2368606CD2F814C000FB05300522C9
S21401386005A9E04705A81DF099FD012828D129469C
S21401387020461DF09DF9421C294620461DF066F99A
S2140138800135E3699D42E3D320461DF040F9002847
S214013890D2D000254FF0FF394FF6FF73CA46A8462F
S2140138A0C4E90853E369984514D3A5EB0905012D2E
S2140138B036D84FF6FF72636A934246D16720C4E753
S2140138C01DF096FD0028DBD0294620461DF070F934
S2140138D00246D1E72368E26B606C576900FB08304B
S2140138E0052205A9B84705A81DF058FD834605A879
S2140138F01DF02BFD074658461DF075FD68B157456E
S21401390038BFC4F82480B94528BFB946BD4238BF80
S2140139103D46BA46236A0133236208F10108C1E72E
S2140139204FF6FF7300256362E3699D42C1D2676C5F
S2140139302068E36B052207FB05005B6905A998472C
S21401394005A81DF002FD0135EEE7E26B676C206805
S214013950694607FB030055690522A84768461DF01E
S214013960F4FC626A2368606C4B4D00FB02301DF06C
S21401397045FD4FF0FF33A062E3622A466FF0010176
S214013980204605ABFFF75AFE002846D1AD6829460A
S2140139902046E5621DF097F8206320B92046E16ACB
S2140139A01DF072F9E062294620461DF06DF90546C4
S2140139B0A36A9D4233D120461DF058F80027804661
S2140139C0B946E36999453CD3B84559D92046616A59
S2140139D01DF0CDF80026054604F1400AB74212D87C
S2140139E0626C2368694602FB0539E36B05225B6955
S2140139F04846984768461DF0A8FC53460246494685
S214013A00E06B1DF0FDFC294620461DF0B0F801369E
S214013A10B0450546E2D1642017E7A56AB7E729460F
S214013A2020461DF050F8236B2946034407462363BE
S214013A3020461DF029F90546002FB9D1C4E90B0728
S214013A40B6E7636C2568052203FB0955E36B05A9F8
S214013A505B692846984705A81DF0A0FC1DF0C3FC2D
S214013A6058B128461DF0CAFC014620461DF02BF829
S214013A70636C143B984208BF013709F10109A0E7BE
S214013A8030461DF00FFB002320461946034AFFF778
S214013A907FFE0020D9E600BF8C170020750D0300BD
S214013AA02DE9F041036B9046826B07689A4288BF06
S214013AB08363426C436A90B002FB0377C36B0E4686
S214013AC0052201A95B6904463846984701A81DF0FE
S214013AD065FC01280146307057D0656CE26B23689F
S214013AE0606AD2F814C005FB0030052206A9E0473B
S214013AF006A81DF053FC01284FF0000523D0D4E999
S214013B000A3201219342CDE90B458DF834800E959A
S214013B108DF83C102AD1194620461DF0B5F8236BC6
S214013B20626C14339B1AE06223630C9B53B99DF8B5
S214013B303C303BB1626A616C2368E06B01FB023189
S214013B401DF0E4FB0C9DE36B05225B6901A9384679
S214013B50984701A81DF022FC30702846236BA26B03
S214013B609A4288BFA36310B0BDE8F081237C33B9C5
S214013B701C490BAA04F1080000F00EFFD5E7204609
S214013B80194A0BABFFF704FECFE7237C23BB224683
S214013B90164904F1080000F0FFFE616A20461DF098
S214013BA007F8616A421C20461CF0D0FF054620B982
S214013BB0236B626C1344143B23632046A16A1DF0F9
S214013BC063F82368A062C01A636CB0FBF3F060620E
S214013BD020461DF09CF8B6E700232046044AFFF76E
S214013BE0D7FDDAE715430100914201000F0E0300ED
S214013BF0AB0D030073B50D46D11E4A421C461B7E13
S214013C004A419A4226D129682368994222D3636899
S214013C1099421FD8114E0DF107033246FFF70EFDEC
S214013C20C0B972686B689A4214D19DF80730DA1EE3
S214013C3053425341227E93420CD16369013363613F
S214013C40D4E90323934205D22968A26842F82310D7
S214013C5001332361012002B070BD00BF8C17002024
S214013C602DE9F04F9A468BB09DF85030DFF850B1F1
S214013C700293DBF81030804653450D461646C0F0D9
S214013C809980D146DBF804300193B9F1000F00F0BA
S214013C908D80D8F83C3001225B6907A901989847C6
S214013CA007A81DF0EDFADBF80030984240F0858059
S214013CB007A81DF0F1FA0428074614D107A81DF03D
S214013CC0F2FA019B029A04463B44002A3FD18642FF
S214013CD012D91446361A404601991CF0D5FFA9EBB5
S214013CE004090190D1E7D8F83C3002225B690198BB
S214013CF008A9984708A8E2E7841B544528BF5446FC
S214013D00032C03EB0607AAEB040A4FEA94021CD91C
S214013D10D8F83C30294638465B69984724F00303B7
S214013D2004F003061F441D44002ED4D0D8F83C30BE
S214013D3001225B6908A9384698473246284608A9F1
S214013D40354420F00FF80026C5E72646ECE707467F
S214013D5000F00302039203442A1804920593049B7D
S214013D60DD1B059BD81B039B9F420FD1002FB2D0B2
S214013D70D8F83C30012208A95B6998473A4628469C
S214013D8008A91FF0BAFF78B93D44A4E7D8F83C303B
S214013D90012208A95B6998470422284608A91FF052
S214013DA0ACFF08B9043FDAE74FF0360948460BB0D6
S214013DB0BDE8F08F4FF06309F8E74FF06F09F5E7BC
S214013DC0B81700202DE9F0410F46164698460446DE
S214013DD088B060B390F83450FDB101211CF08CFE20
S214013DE000210E9BCDE90511CDE902379DF83C3047
S214013DF0CDF804808DF81C30237C04968BB90D49D0
S214013E0001AA04F1080000F0C7FDDDE90553E06BE7
S214013E10002E08BF1D461DF008F8284608B0BDE86C
S214013E20F0812046044A01ABFFF7B2FCEDE70546F8
S214013E30F3E700BFD90D0300F53B01002DE9F04F74
S214013E4099B00F4609920A69416C0E931439D31D35
S214013E50B3FBF1F3013302EBC302036B0446934257
S214013E60C0F0B3810023DFF824940D93E36A48463B
S214013E701946079300F014FED7E9033604930E9B08
S214013E80022B4ED1CC2E40F08A81099B002B42D0CA
S214013E90394620461DF027F8656C079A6B1E1340BD
S214013EA01490ED1AE36B01225B6916A978689847AE
S214013EB016A81DF0E9F900280CBF04230823782E64
S214013EC006933DD9012300254FF0080A05933B6868
S214013ED005990E98C9F80030C9F810601DF0F6F97A
S214013EE04FEA9A0310930023DDF81CB089F81400FA
S214013EF00B930F9308930C93616C4A1E0BEA020214
S214013F008B1A002E38D05544AB4240D8236B5B1A2F
S214013F1013442363ABE0049B1B68149308230693A6
S214013F20D0E7656C079A6B1E1340782EA5EB030548
S214013F3016D8FB7D7BB9099B002BB3D104230693CE
S214013F40331DAB4210D9A6B1082DBBD804250023DA
S214013F50AA460593BBE7099B002BA3D10823EEE7EE
S214013F60099B002B9ED1D9E7002505954FF0040A41
S214013F70ADE704250596F9E75345C7D3B0460BEBE5
S214013F800A030393089B002B18BF032313E0A3EB3C
S214013F900A039E42B0460BEB0A0228BF98469E4291
S214013FA00392EFD90123D9F8102089F817309642E9
S214013FB071D1C9F804B0089399F81730002B6CD06A
S214013FC099F818200899D31C09EBC3030132C3F8EA
S214013FD004B0A3F80880997289F81820B8F1000F88
S214013FE014D00E9B022B5BD10B9B7BB90F9B4344DA
S214013FF0032B0BD9E36B01229B69039814A99847FD
S2140140000546002840F0E38001230B93089B16A881
S2140140100193059B009399F814204346396800F0F4
S214014020F5FCE36B58469B69109A16A99847051E3E
S2140140300D9B18BF5B4652460D9359464346204694
S2140140401CF04FFE236B08F10302A3EB0A0322F0D8
S21401405003029B1AC9F808002363002D40F0B780BD
S2140140600F9BDDF80CB04344A6EB08060F935946A8
S21401407020461CF009FE00258346002E7FF43CAF47
S214014080824A3968936804F10800E36252680E9B1D
S21401409000F034FC84E002238DE7C9F804B09DE704
S2140140A0099B002B30D1049BB8F1030F43440A93BC
S2140140B027D9DDE90301E36B4FEA98029B6998472C
S2140140C00546002865D118F003025FD0049B28F04E
S2140140D003052B440493039B1D444FF0FF330499BF
S2140140E015A815931FF03EFEE36B28469B69012237
S2140140F015A9984705460A9B0493002D86D0039B75
S21401410099E74246039DE8E7039B0A9307F12003DC
S2140141101193FB7D78689BB100233D7E0C9AD9B242
S2140141208D4211D9119903F1010C31F833109142E6
S21401413026D9069907EBC303D8690A44104403E05D
S2140141400C9B069A13441844E36B01225B6915A97C
S2140141509847159B012213930C9B0A9804330C93E2
S214014160E36B13A99B699847039B0A9A43449B1ADE
S214014170042B054607D978B9134604330A93C8E7D2
S2140141806346521ACBE70A9B0393B6E70A9B04934E
S2140141903CE70A9B0493B2E70A9B0393AFE77026BA
S2140141A0304619B0BDE8F08F4FF0000A4FE03A698B
S2140141B0616CD31D1439B3FBF1F3013302EBC30277
S2140141C0236B9342BFF452AE5DE01C26E8E73D2D1B
S2140141D059D104F1080303932368079A606CA2EB94
S2140141E0030ABAFBF0FA00FB0A301DF007F9E16A90
S2140141F0804620461CF048FDA26A8242D7D0626CF7
S214014200D9F80830511E0B40216B2668891A0B44D9
S21401421023630D9BE0629E1BB6FBF2F6B245C3D14B
S214014220079BB3EB080A12D0E36B4FEA9A024146AA
S2140142309B6998478346E36A079A5344E362236B74
S21401424003989B1A434423631CF02CFFDA46236829
S214014250616CE06B01FB06311DF045F820461CF051
S21401426056FC20461CF053FD2063BAF1000F9ED089
S2140142703A69616CD31D1439B3FBF1F3013302EBD8
S214014280C3029042A8D22E468AE700BF60170020DC
S214014290032A2DE9F34106460D4617461C4606D16C
S2140142A0237A012B23D0012002B0BDE8F081DFF88C
S2140142B06080096842460DF10703FFF7BFF96060A9
S2140142C00028EDD19DF80720237A032AE8D0D8F8F4
S2140142D004106A689142E3D1012B2969D4F80CC015
S2140142E007D172690CEB0103934202D92074207C3A
S2140142F0DAE708316144E1603B460122294630464F
S214014300FFF79CFD60600028CAD00020CCE700BF04
S2140143108C1700202DE9F341089C032A17462668CE
S21401432006D1237A012B24D0012002B0BDE8F0810A
S214014330DFF89080304642460DF10703FFF77EF91D
S21401434060600028EDD12568D8F80400A96AD5F880
S21401435044C04840CCF100031840227AE1D1012A3A
S21401436009D1E268D8F8103013447269934202D931
S2140143702074207CD9E72868EB6A1B1A081AB3FB5D
S214014380FCF3B0FBFCF083420BD1706CF36A421E67
S2140143901340326B121A1344284633631CF074FC24
S2140143A0E862D8F81020E36808321344E36001227B
S2140143B03B4604492068FFF741FD60600028B0D005
S2140143C00020B2E78C1700202DE9F0410025634B51
S2140143D00E46D3F8008004461D6018B921252846EC
S2140143E0BDE8F08190F8347007B30A6803689A4212
S2140143F040F0AA804A6843689A4240F0A5808A68DD
S21401440083689A4240F0A080CA68C3689A4240F026
S2140144109B800A6943699A4240F096808A69C36B19
S2140144209A4240F091804B698361D8E76822394609
S214014430856B1FF08CFCD6E90212336804F1080084
S21401444023607368A5636360336963617369A361FD
S2140144501CF03AFEB36904F14000E3639B68984799
S21401446020B9676C17B16368B3FBF7F794F843306C
S214014470E761002BB2D00023656C2366002D6BD05C
S214014480002F69D02368B3FBF5F205FB1233002B2E
S2140144905CD16768B7FBF5F605FB1676002E55D19D
S2140144A020461CF000FBA369043303449F424FD30C
S2140144B040F634726369CC3B93424BD8B5F5805FC6
S2140144C04AD3032120461CF017FBD4E90001E36B15
S2140144D01B6898470546E36B0220DB6898472DB1B9
S2140144E084F83460E06B1CF0A0FC78E74146204677
S2140144F0FFF78AF96428054604D141462046FFF7AE
S21401450083F90546636C143BD5B9226A204602FB43
S21401451003F61CF0C8FAA369043303449E4203D28F
S21401452084F834505A25DDE70123D4E900010C4A0A
S21401453084F834301368013313601CF05FFED1E752
S214014540002384F83430CDE75D2548E7592546E752
S2140145505A2544E75F2542E75B2540E7F010002037
S214014560EC1000202DE9FF410C4616461F46054675
S21401457080B390F834307BB3B1F5801F2ED2DFF8CC
S214014580608001211CF0B8FA2146424628460DF10A
S2140145900F03FFF753F8044670B99DF80F30012B4F
S2140145A011D1D8F81030BB4212D1024600903146E4
S2140145B02846FFF755FB0446E86B1CF036FC204600
S2140145C004B0BDE8F081022B14BF2D246024F3E76C
S2140145D06324F1E72124F2E71124F0E72924EEE72A
S2140145E0B81700202DE9F04385B00C4617461E4645
S2140145F00546DDF8308098B390F8343093B3B1F5C2
S214014600801F31D2DFF8649001211CF075FA214633
S2140146104A4628460DF10F03FFF710F8044688B9FD
S2140146209DF80F30012B14D1D9F8102006EB0803A2
S2140146309A4213D300904346324639462846FFF73E
S2140146400FFB0446E86B1CF0F0FB204605B0BDE806
S214014650F083022B14BF2D246024F3E76324F1E7D3
S2140146602124F2E71124F0E72924EEE7B817002009
S2140146702DE9F3411F4600230C46164605463B60CE
S21401468050B390F834304BB3B1F5801F28D2DFF821
S214014690548001211CF030FA2146424628460DF18D
S2140146A00703FEF7CBFF0446A0B99DF80730032B9E
S2140146B010D0022B0AD10123336004233B60E86B40
S2140146C01CF0B3FB204602B0BDE8F081D8F81030EC
S2140146D03060F3E72D24F2E72124F3E71124F1E714
S2140146E02924EFE7B817002073B50446056B1CF0C4
S2140146F0DAF9636E03449D422CBF002301238542F1
S21401470094BF00252D1A207C84F85030656584F806
S2140147105800A8B100230C4E1A46194620460096AA
S2140147201CF0AEFC002305461A46194620460096A4
S2140147301CF0AFFCE3682844984294BF0020C01ADE
S214014740E06502B070BD00BFFFFF0F002DE9F34723
S2140147501E4643690446B342884617469DF828908C
S2140147604ED300258DF8075020461CF09CF9D4F84E
S21401477030A082450AD2236AB5EB430F06D2002247
S21401478020460DF10701FFF78BF9B8B39DF8073006
S214014790012B05D1002220460DF10701FFF780F914
S2140147A0B9F1030F06D0314620461CF06CF9256B93
S2140147B0854227D3144D4FF0FF31284600F070F99B
S2140147C04B46294600222046C5E90376C5F80080F7
S2140147D0FFF734FB236E054663B12046FFF784FFDF
S2140147E094F8503013B994F858301BB1236E04F185
S2140147F050009847284602B0BDE8F0870135B3E778
S2140148006225F7E71C25F5E78C1700202DE9FF4107
S2140148100F4690461E46054698B390F8343093B33B
S214014820B1F5801F31D21A4C02211CF065F92246DF
S214014830394628460DF10F03FEF700FF024678B110
S214014840012342460093394633462846FFF77EFF4A
S2140148500446E86B1CF0E9FA204604B0BDE8F08196
S2140148609DF80F30012BEBD12169B142E8D10093BD
S214014870414633462846FFF7F3F904460028DFD1C0
S214014880E7E72124E8E71124E6E72924E4E700BF67
S214014890B817002030B50C46054685B028B390F809
S2140148A0343023B3B1F5801F23D202211CF024F942
S2140148B00DF10F03214628460F4AFEF7BFFE0346B9
S2140148C088B99DF80F20032A0DD0032221460092B5
S2140148D002462846FFF73AFF0446E86B1CF0A5FAA5
S2140148E0204605B030BD2D24F7E72124F8E7112432
S2140148F0F6E72924F4E700BFB81700202DE9F043B6
S214014900466886B3056898464FF0000CA946AE4641
S21401491055F83C400CF1010CC4F31307013401D0E7
S214014920B94217D066450EF1080EF1D12F46002484
S21401493003E0A64207F1080712D055F834300134D7
S2140149400133F6D1C1F3130141EA0851C7E9001258
S214014950BDE8F08341EA0851CEE90012BDE8F083D4
S214014960B8F1030F03D101230372BDE8F0830023DE
S21401497003E09E4209F10809F5D055F833400133AA
S214014980C4F30754032CF4D1C1F3130343EA0853C9
S214014990C9E90032BDE8F0832DE9F04106464068DA
S2140149A082B0C0B10F4690460024336853F83450A5
S2140149B003EBC403C5F30752C5F31301013504F134
S2140149C0010406D05B683046CDF80080B84710B1C8
S2140149D070688442E9D302B0BDE8F081024B1968E1
S2140149E0024B1868FFF7F0BCC02B0020E02B00201C
S2140149F008B529F0DAFE014B186008BDE41700205F
S214014A00014B186829F0CCBEE417002073B50446A4
S214014A102248012A00EAC1119DF8185023F07C4073
S214014A2007D9961E012E28D9073303F07F031943B1
S214014A3008E09DF81C300A43DB0603F0C05313431D
S214014A4043F060410023C4E900108DF80730B5B18A
S214014A50202221460DF107001CF0ECFC1A220DF174
S214014A600700211D1CF0E6FC082063689DF807205E
S214014A7043EA8263636002B070BD1143E2E71B2222
S214014A800DF1070021461CF0D5FC23689DF8072090
S214014A90042043EAC2632360EDE700BF80FFFF07FF
S214014AA038B5094B0D461A68002104461FF04FF928
S214014AB000234FF0FF322383C4E900252361A2605F
S214014AC0E382A37638BD00BF6CED03000138C0B2A7
S214014AD005289ABF014B185C0120704771ED030051
S214014AE02DE9F0410746154600240E46596888B060
S214014AF0490A012922464FEA510104F10104F8D876
S214014B00DC78997824031B88C90201F4006104F457
S214014B1080540C43C3F30A035203234492B24FF06A
S214014B2000089C18274B6FEA0444039325F078434A
S214014B30ED4302A90DF107001B2202938DF80780B1
S214014B401CF078FC9DF80720029B02A943EAC26389
S214014B500DF107001B2225F07845049302958DF888
S214014B6007801CF067FC9DF80720029B6FEA14443F
S214014B7043EAC26305934FF0FF330794069307A9F0
S214014B80BB69012206F110009847BB6905A90446D6
S214014B90012206F108009847BB69404518BF044644
S214014BA004A90122301D98470122404518BF04463A
S214014BB0BB69304603A99847404508BF204608B060
S214014BC0BDE8F08101009AB238B504460D4629F0D9
S214014BD0F5FDA3889BB223B92B6029F0EAFD0648B0
S214014BE038BD142263889BB202FB034408342C6050
S214014BF029F0DFFD0020F3E70B7000F038B141B17A
S214014C00013AB2F5006F044838BF002070470348E8
S214014C1070470148704700BF037000F0027000F053
S214014C20104930B50A78104B2AB9C3E90022C3E906
S214014C30022201220A700C4900220C4654F8045B39
S214014C40854208D00132042AF8D1002251F8044BDB
S214014C501CB943F82200002030BD0132042AF5D1E8
S214014C600248F9E798280020E8170020027000F0B3
S214014C70002313B51D4A52F8044B94F821108142C3
S214014C800ED00133042BF6D102B010BD0028FBD1A3
S214014C909DF80730002BF7D0A068FEF733FBF3E74B
S214014CA094F83530022BEFD120461CF048FC637E89
S214014CB02076022BE8D194F8323003F0FF02002B65
S214014CC0E2D1A0680DF107018DF8072028F090FCCD
S214014CD0237E1BB194F83330002BD7D00023A06875
S214014CE084F83330FEF72EFBCEE700BFE81700202E
S214014CF010B50446FEF7ACFA002104F10800FEF7F1
S214014D002FFA014608B1044810BD04F10C00FEF765
S214014D1027FA0028F8D0F6E70E7000F0F8B504463A
S214014D2016460F4629F04AFDA388E2889BB29A42AE
S214014D30054605D80023336029F03BFD1748F8BD2A
S214014D401422238807F1100C9BB202FB03433A4658
S214014D500833174603CF6745186059603A4603F192
S214014D600803F6D1142238681860238828469BB2B7
S214014D7002FB0343083333602388E2889BB2013386
S214014D80B3FBF2F102FB11339BB22380A3880133FC
S214014D909BB2A38029F00DFD0020D0E70A7000F039
S214014DA008B590F8363083B9042203685A619A69C7
S214014DB09207FCD541F21C62102103795B0103F1D5
S214014DC0A04303F57033995008BD022BFCD100684F
S214014DD0036CDB074CBF052106211CF07EFC02227A
S214014DE0014BC3F8C020EFE700D4035001232DE99F
S214014DF0F04180F8313090F8363004460E4688B0DF
S214014E0063BB256829F0DAFC04F13C0807460DF17E
S214014E101F0140463C3529F0B5FA40B99DF81F30D0
S214014E202BB1404629F082FA204629F0E6FC3846A6
S214014E30012729F0BEFC2046E7651CF099FB0B4BC9
S214014E40049403930023029373682A46CDE9007302
S214014E5033682169A0681BF0D5FD04E0022BD0D091
S214014E60002380F8313008B0BDE8F081714E0100B2
S214014E702DE9FF41D06A03A91446FFF7A5FE0646B1
S214014E80204629F0A7FC002501462346CDE900551A
S214014E90184A04F13C0029F041FE174B9E4221D0EE
S214014EA0039E3561B56029F089FCD6F80C8007466B
S214014EB0B8F1000F04D0D6E9002329462046C047A2
S214014EC0E06A03A91CF06DFBE06A83889BB26BB1B4
S214014ED003A9FFF779FE20460399FFF787FF3846B7
S214014EE029F067FC012004B0BDE8F08184F8313078
S214014EF0F5E700BFC5D603000B7000F02DE9F041C1
S214014F0004461746FFF77AFE88460646E8B9152096
S214014F1003F03AF90546E26A93889BB213B194F816
S214014F203230ABB194F83630BBB923689D6915F0C1
S214014F30020527D0012384F834304744B845206859
S214014F403ED183699B06FCD545B33046BDE8F0816A
S214014F50002DE1D0FEF716FADDE7022B12D1236809
S214014F601D6C15F002050DD0012384F8343047443A
S214014F70474520682BD142F22002036C32EA030334
S214014F80FBD1E1E72046FFF70BFF012394F83650EB
S214014F9084F83430002DD0D0022D16D094F8363057
S214014FA0D3B1022BD1D12068016C11F0010118BFD9
S214014FB009211CF092FB02220E4BC3F8C020C4E765
S214014FC018F8011B1CF006FCB8E70025CFE718F817
S214014FD0011B1CF0A4FBCBE742F21C6210212379D3
S214014FE05B0103F1A04303F570339950082223684F
S214014FF05A61AAE700E4035010B5044680B190F860
S21401500032302BB91CF09BFA10B9A068FEF77AF97A
S214015010002094F832300133DBB284F8323010BD10
S2140150200048FCE7027000F010B50446A0B190F805
S21401503032309BB190F83230012B05D11CF07FFA4B
S21401504010B9A068FEF77EF9002094F83230013BD3
S214015050DBB284F8323010BD0148FCE70148FAE7BC
S214015060027000F0057000F030B50025437F85B072
S2140150708DF8083090F82130044604228DF8093066
S214015080039303A9064B009502A8FDF727FF4FF4EB
S214015090007320462383A5761CF0A6FA05B030BD22
S2140150A0714C01002DE9F04105466E4F88B001AE06
S2140150B00C460FCF0FC697E8070086E80700002DBD
S2140150C000F0CE8024B9684E304608B0BDE8F081C5
S2140150D06422002128461EF03AFE2846FFF7A0FD6E
S2140150E006460028F0D1237D85F83530236885F8FB
S2140150F036002B60227B2A710122EA655B4A6168D1
S2140151009342296600F0A18002F580429342DAD1EB
S2140151104FF4A0235648574A0026C5E90423D4E98C
S21401512007236862AA6216805680968085F83060EA
S214015130EB621E805E809E80E38985F83160ADF863
S2140151401430238A85F83360ADF81230A37C4A48C0
S2140151508DF81030E37C03918DF8163005238DF819
S214015160113029F03FFC6B6ADFF81C81986829F042
S21401517039FC206801A98DF8046001F07FFC142237
S214015180237B08EB4313C3F81C26267AA07A46EA4B
S2140151900042C3F83426617AE27A41EA0247C3F84C
S2140151A02C76EE76E877297785F82020637D012135
S2140151B06B77A37D284685F82130E37DAB77237E88
S2140151C085F822301CF054F9064600287FF47CAF9F
S2140151D029F0F4FA237D0746032B3BD141F21C62EA
S2140151E00221237B08EB431848F8021004212268A9
S2140151F05B0102F58052D165217EE27D03F1A04379
S21401520042EA014203F57433C3F82826A17D627D84
S21401521042EA0142C3F824264FF0FF32206800F527
S21401522000539A64237D032B0CBF052104211CF037
S214015230B8FA4FF44062236828465A61FFF758FDD2
S2140152400646384629F0B5FA3EE74FF480230B4868
S2140152500B4A61E7022BDFD12846FFF705FFDBE7A4
S214015260084E31E778ED0300037000F000C00550EA
S214015270D0EE030002000500C8EE0300DCEE0300DA
S21401528002000400027000F000C0035030B587B081
S21401529004461346FFF7B2FC40BBCDE90113039366
S2140152A0164B0490059394F836300BBB23689B6924
S2140152B003F0020313B92046FFF772FD6A46E06A5F
S2140152C001A9FFF72BFD88B9E26A93889BB2012BEF
S2140152D0FBD8009D20462946FFF788FD012384F868
S2140152E0343094F83130002BFBD1286907B030BD3B
S2140152F0022BE0D123681B6CDAE700BF017000F0D7
S214015300044BD3F88420D206FBD4D3F88400C0F330
S214015310811070470040005038B5184B0546D3F849
S21401532024010C4600F00700062823D8DFE800F029
S214015330040A121A1E0E1600012305B1286004B1D4
S214015340236038BD28F0E4F80523F6E728F0E0F8F6
S2140153500623F2E728F01CF90323EEE728F018F9F4
S2140153600423EAE728F010F90223E6E728F016F905
S2140153700723E2E700231846DFE700BF008000505E
S21401538038B5104B0546D3F800310C4603F003033D
S214015390022B0BD0032B0DD0012B0FD128F0F8F8E0
S2140153A0032305B1286004B1236038BD28F0FAF85C
S2140153B00823F6E728F0F2F80723F2E70123002096
S2140153C0EFE700BF0080005038B5104B0546D3F814
S2140153D020310C4603F00303022B0BD0032B0DD018
S2140153E0012B0FD128F094F8052305B1286004B1EC
S2140153F0236038BD28F0CCF80323F6E728F0C4F87C
S2140154000223F2E701230020EFE700BF00800050EF
S21401541038B5104B0546D3F840310C4603F003036C
S214015420022B0BD0032B0DD0012B0FD129F0CCF979
S214015430092305B1286004B1236038BD28F0B2F80D
S2140154400823F6E729F0C3F90B23F2E7012300202E
S214015450EFE700BF0080005038B5104B0546D3F883
S21401546060310C4603F00303022B0BD0032B0DD047
S214015470012B0FD129F0A8F9092305B1286004B141
S214015480236038BD28F08EF80823F6E729F09FF947
S2140154900B23F2E701230020EFE700BF0080005056
S2140154A02E4B98424AD022D82D4B984240D014D841
S2140154B02C4B984239D00AD82B4B984232D02B4BE2
S2140154C098422FD02A4B98422CD000207047294B67
S2140154D09842FAD1284B186F7047284B98422AD029
S2140154E0274B9842F1D1244BD3F880007047254BC7
S2140154F098422BD009D8244B984223D0234B98426C
S214015500E3D11D4BD3F88C007047214B984221D034
S21401551003F5740303F510539842D6D1164BD3F80E
S21401552098007047144B986D7047134B586E704730
S214015530114B586F7047104B986F70470E4BD3F84E
S214015540840070470C4BD3F8880070470A4BD3F899
S21401555090007047084BD3F8940070470048E80164
S2140155600024F400C0CF6A0080841E0000093D00BC
S21401557040420F00405DC6000080E00FC0EA2101F6
S21401558080BA8C01007E560380D54302006CDC0293
S2140155900090D00373B50D4600210E4B0191D3F850
S2140155A08041064604F00304012C09D0022C0CD0DD
S2140155B00C460EB1019B336005B12C6002B070BD84
S2140155C001A8FFF701FF0F24F3E727F0DDFF0190A5
S2140155D0EFE700BF0080005038B5104B0546D3F802
S2140155E040320C4603F00303022B0BD0032B0DD0E5
S2140155F0012B0FD129F0E8F8092305B1286004B181
S214015600236038BD27F0CEFF0823F6E729F0DFF840
S2140156100B23F2E700231846EFE700BF0080005097
S21401562038B5144B0546D3F800020C4600F00700C7
S21401563004281BD8DFE800F003090D11150001232B
S21401564005B1286004B1236038BD29F0BDF80923EF
S214015650F6E727F0A7FF0823F2E729F0B8F80B23AF
S214015660EEE727F07BFF0E23800AE9E700231846C2
S214015670E6E700BF0080005010B40D4C0B46D4F88E
S214015680204204F00304012C0AD0022C0CD008B1ED
S214015690002101600BB100221A605DF8044B7047CF
S2140156A05DF8044BFFF790BE5DF8044BFFF7B0BE04
S2140156B000800050B0F5207F1FD009D8B0F5007FDC
S2140156C015D003D868B1B0F5C07F0AD000200CE031
S2140156D0B0F5607FFAD10B4BD3F88000C0F3011010
S2140156E003E0084B186FC0F3033001307047054BD9
S2140156F0D3F89000C0F30460F7E7024B186FC0F3CD
S2140157008020F2E7008000504FF400320E4B014635
S21401571010B500209A66FFF7CDFF484341F6713277
S2140157200A490B4B884294BF00200120DC69DA63EA
S2140157309A6822F4401242EA00529A60E20344BF99
S2140157400022DA6310BD00BF00900050005A6202CA
S21401575000000350420910B50FD0012A0FD00A4BA2
S2140157600A4C022A18BF234600F01F0049B103F570
S2140157708053012282401A6010BD1346F4E7044BA1
S214015780F2E703F50053F4E76880005060820050AA
S214015790648000501FB50021B0F5807F044601915A
S2140157A000F0068100F29D80612800F295801F2896
S2140157B005D8002840F0928027F0D0FEDCE0A0F16A
S2140157C02004412C00F28A8001A353F824F000BF84
S2140157D0B95701007D590100B95701007D590100F3
S2140157E09D5901009D5901009D5901009D590100D7
S2140157F07D5901007D5901005759010011590100D9
S214015800D3590100DD590100115901007D590100EC
S2140158107D5901007D590100DD580100DD58010068
S214015820DD580100DD580100DD580100DD5801009A
S214015830A7590100335901007D5901007D59010026
S2140158407D590100F1590100E75901007D59010018
S214015850DD580100DD580100DD580100DD5801006A
S214015860DD580100DD580100DD580100DD5801005A
S214015870DD580100DD580100DD580100DD5801004A
S214015880DD580100B9570100DD580100B957010084
S214015890B9570100B95701009D590100DD580100B3
S2140158A0DD580100DD580100DD580100DD5801001A
S2140158B0DD580100DD580100DD580100DD5801000A
S2140158C0DD580100DD580100DD580100DD580100FA
S2140158D0B9570100B957010080284BD0019804B090
S2140158E010BDB0F5A06F5ED028D8B0F5607F50D05F
S2140158F019D8B0F5007F4CD004D8B0F5C07F3FF47E
S2140159005BAFEBE7B0F5207F38D0B0F5407FE5D14F
S21401591027F024FE02464FF42070FFF7CBFEB2FBC1
S214015920F0F2520833E0B0F5806F37D0B0F5906FE3
S214015930D4D1002101A8FFF7EFFCCFE7B0F5E06F67
S21401594051D00DD8B0F5C06F43D0B0F5D06F45D06B
S214015950B0F5B06FC2D1002101A8FFF71BFEBDE76D
S214015960B0F5F06F44D0B0F5086FB7D101A8FFF7D6
S21401597007FDB3E727F0D2FD0190AFE727F0EEFD74
S21401598002464FF42070FFF795FEB2FBF0F201924B
S214015990A4E727F0C3FD02462046F4E7002101A84C
S2140159A0FFF712FD9AE7002101A8FFF765FE95E7CC
S2140159B04FF0E02302911B695B0705D527F0CEFD6A
S2140159C00290029B019389E703A902A8FFF720FD35
S2140159D0F7E7002101A8FFF71BFD7FE7002101A8DB
S2140159E0FFF71EFE7AE7002101A8FFF7F5FD75E730
S2140159F0002101A8FFF730FD70E700BF08B5802041
S214015A00FFF7C8FE034B98429EBF4FF48032024B0D
S214015A101A6708BD005A620200A000501FB503466F
S214015A200020B3F5807F01906FD027D8382B00F087
S214015A3082800BD8243B092B0FD8092B0DD8DFE821
S214015A4003F05F5F5F5F0C0C5A0C3675522B57D014
S214015A5007D83D2B3AD03E2B72D0019805B05DF8A1
S214015A6004FB802BF9D1394B1B6F03F00703013B75
S214015A70032BF2D8DFE803F03D36393BB3F5D06FA0
S214015A8054D019D8B3F5A06F55D00AD8B3F5806FA6
S214015A9036D0B3F5906FE0D1002001A9FFF73CFCAA
S214015AA0DBE7B3F5B06F26D0B3F5C06FD5D10020D4
S214015AB001A9FFF7ADFCD0E7B3F5006FECD00AD82B
S214015AC0B3F5E06F3CD0B3F5F06FC6D1002001A965
S214015AD0FFF7C2FCC1E7B3F5086FBED101A9FFF716
S214015AE04FFCBAE705230193B7E70323FBE7072338
S214015AF0F9E70223F7E7002001A9FFF74BFDACE722
S214015B00002001A9FFF760FCA7E74FF0E023029011
S214015B101B695B0705D527F021FD0C230393039B27
S214015B20E1E703A902A8FFF773FCF8E7002001A943
S214015B30FFF776FD91E7002001A9FFF79DFD8CE7B1
S214015B40002001A9FFF748FD87E700BF008000504D
S214015B504FF48032074B0849586E03F580535A6656
S214015B600B6A23F001030B62C3035CBF034B5A6647
S214015B70704700BF0080005000C0075000A00050D2
S214015B8008B5FFF74BFF082811D00938012802D9BC
S214015B904FF6FF7008BD4FF40012064B5A6603F528
S214015BA0D8335B6ADB07F3D54FF4FA70F2E7024BA2
S214015BB01888EFE700900050A22E002008B5FFF7E6
S214015BC02DFF03280ABF024B4FF6FF70188808BD49
S214015BD0A02E0020F8B504468020FFF71FFF0328FB
S214015BE000F087804FF40022424B02215A6645F6A8
S214015BF00E03414AC2F88030404B9962012103F5F9
S214015C0080539962936DD903FCD4D4E900131B0524
S214015C1043EA0163E17B94F820500B43217BE77E46
S214015C2043EA0143617B6D0143EA0133A17B43EA09
S214015C30811313619169D4E904031B0643EA806367
S214015C4001F000410B43A17E94F823000B43217E13
S214015C5043EA0143617E43EA01239361136AE669DD
S214015C6023F00D0394F8221043EA8703002E2DD16A
S214015C701362966A94F8213045EA031326F0330539
S214015C802B4343F0010393621D4D1B4B9A6D35EA7E
S214015C900202FBD10222194DAA621A659A6D5200C0
S214015CA0FCD41A69A56822F4700242EA05521A6108
S214015CB04FF00042114B9A6119B9022203F5805345
S214015CC09A6278B901220F4B9A620BE0334343F094
S214015CD008031362936A23F0330303432B4343EA17
S214015CE04103936294F824301BB1034B064AC3F870
S214015CF08020F8BD0090005000C0005000D0005039
S214015D000300014000E00050F1A7FFFF014B93F9AB
S214015D10000070479A280020F0B5D0E901434FF4FF
S214015D2080061A4A4178057856664FF4D1560227FE
S214015D3002F5B8325662164E4F2977604FF00107CA
S214015D4028BF4F2106F5805677601669F603FCD406
S214015D5041EA052151611B01417B43EA04230B43C0
S214015D60017B43EA41039360C37B817B1B0143EACA
S214015D704113417C0B43017C43EA41035360837C1E
S214015D8013B16FF4D1535362F0BD00BF00900050C1
S214015D9000100250014B1880704700BFA22E002051
S214015DA0014B1880704700BFA02E00204FF4001250
S214015DB008B5184B5A660223174A5360936813F4C2
S214015DC08033FBD1012822D127F0E2FB134B984206
S214015DD015D003F5122303F5F863984213D0104B40
S214015DE000EB8002400AB3FBF0F3520A0A49CA628A
S214015DF00B6301234B620022074B5A6008BD45F630
S214015E007A13084AF2E745F61A03074AEEE75362A1
S214015E10F1E700BF009000500040025000F0490238
S214015E2064666666D8B80500BBCF0500B0F5207F6E
S214015E3010B50C4642D008D8B0F5007F33D003D851
S214015E4088B1B0F5C07F0ED010BDB0F5607FFBD134
S214015E501F4A4C1ED2F8803023F0300343EA041365
S214015E60C2F88030F0E71BF0FBFB1BF007FC4FF499
S214015E708031184B164A1967136F013C23F470439F
S214015E8043EA0433136727F069FB0446FFF738FA41
S214015E90C0F1020120461BF0EBFB00F035F8BDE82F
S214015EA01040FFF7ABBD0A4A4C1ED2F8903023F0E3
S214015EB0F85343EA0463C2F89030C5E7044A4C1E1F
S214015EC0136F23F4806343EA84231367BCE700BFA0
S214015ED0008000500090005008B50121022000F01B
S214015EE055F94FF42070FFF7E5FB054B18701BF0D2
S214015EF0B7FB1BF0C3FB4FF48032024B1A6708BD99
S214015F00992800200090005008B54FF4C070FFF7A4
S214015F1041FCBDE808400449884294BF01210221A2
S214015F204FF42070FFF782BF80F0FA0238B50446BE
S214015F3027F014FB0546FFF7E3F9C0F102012846F6
S214015F401BF096FB0121002000F060F92CB1FFF751
S214015F50DBFFBDE83840FFF751BD034B4FF420701F
S214015F601978FFF763FFF4E7992800204FF4C02261
S214015F7070B50546FFF794FA314B04465A6603F5A9
S214015F8098335A68012A04D12E494A609A699207C1
S214015F90FCD18020FFF742FD052807D11BF060FBEE
S214015FA01BF06CFB4FF48032254B1A67264B24F00E
S214015FB040749D4230D0254B9D4230D027F0A8FA40
S214015FC08542064603D90121284600F01FF9204BD9
S214015FD0DA6812F0060FFBD199689C609A686240F5
S214015FE012F4F81F1ED12846FCF7D6FD8020FFF7D5
S214015FF015FD05280DD127F0B1FA0446FFF780F903
S214016000C0F1020120461BF033FBFFF77DFFFFF7CF
S214016010F5FCAE420CD270BD44F00074CEE744F0FD
S2140160208074CBE780209960FFF7F8FC052805D03F
S214016030BDE870400121002000F0E8B83546DAE7F7
S2140160400090005000E0015040420F0080841E0086
S2140160500000015010B5224B70B94FF40031214AAF
S2140160601860516602F598325268012A03D11E4A19
S214016070D2F800211A6010BD1B68002BFBD01B4A0A
S2140160805268012AF7D0184A8020C2F80031FFF77B
S214016090C5FC05281FD14FF4C070FFF70BFB012884
S2140160A0044604D102214FF4C070FFF7BFFE072259
S2140160B00F4B1A610122A3F580535A600B4A1369EC
S2140160C0DB07FCD5012CD6D12146BDE810404FF4A4
S2140160D0C070FFF7ABBE0122064B5A60CBE700BF8C
S2140160E0F8170020009000500080005000C00150BA
S2140160F000E0015000D00150044A4178536F23F468
S214016100407343EA01235367704700BF00400050C5
S21401611010B5044610B10020FFF79CFF124A136920
S21401612043F00403136127F0FFFF1BF0ACFA0F4B9B
S2140161305B6E5B0142BF0E4B0E4AC3F8202428F06B
S21401614034FB28F0C1FD28F02BFB1BF09DFA02F072
S214016150ADFF1CB9BDE8104027F000BA0120BDE82C
S2140161601040FFF777BF00BF00ED00E00080005051
S21401617000E003500000FF0F034A0179D36E23F0BD
S21401618030030B43D366704700400050F8B5044611
S2140161901C4BD3F88420D106FBD4D3F88430C3F348
S2140161A081139C422CD027F0B9F9012C064602D166
S2140161B021461BF05DFA28F0F8FA4FF00072124BF8
S2140161C007465A6620461BF066FA4FF480630D4D6B
S2140161D0621E93402B676B6E9A0103D4D5F8843008
S2140161E09B060AD5384628F0DBFA022C08D1304641
S2140161F0BDE8F84000211BF03BBAD5F88430EAE749
S214016200F8BD00BF004000500060005010B50C46BD
S21401621008B927F083F9074B21461B783BB1064B9B
S214016220984204D80120BDE81040FFF7AFBF022016
S214016230F9E700BF9B280020005A62020278034B50
S214016240012100201A70FFF7E1BF00BF9B28002044
S2140162504FF0004238B5264B26495A6601224A605D
S2140162604AF6CD3103F50B235D6C1964154030BB3E
S2140162709968C9070BD4002401221F4B5A6015B137
S2140162801E4B1F4A1A6424F0C1F8204638BD1A492D
S2140162908A601C4AD96ACC0705D4904201D10724EA
S2140162A0EAE70130F6E79042E5D1F8E70132DC6A29
S2140162B014F0080406D08A42F8D10724DFE700224A
S2140162C01049F4E78A42F8D020220B4B0B495A6258
S2140162D00122A3F580539A6023460A4A486A80063B
S2140162E003D49342E9D00133F8E79342C7D1E4E7F8
S2140162F000900050005009500060095000400950BD
S2140163003254FFFF40420F004FF0004238B5174BA2
S214016310174C5A66012203F50C235A604AF6CD3310
S214016320656C2364437893401343124AD363C3785E
S2140163308178A2689B0043EA011322F0740213439A
S214016340A3600279837943EA022323614279C37900
S21401635043EA022363610078FFF77AFFEB0744BF45
S214016360054B236424F052F8012038BD00900050FC
S21401637000400950004000503254FFFF10B504465B
S2140163801BF08EF9002341F202020849E360A36084
S214016390226104F50052E3616361A36123626362D3
S2140163A0E362A3645164A36210BD00BF7F370C0192
S2140163B038B50446154639B91848844214BF08460C
S2140163C03820FFF7E7F901466368A36803F0E003A6
S2140163D0402B1AD003D8D3B1202B1AD038BD602B4E
S2140163E019D0802BFAD101236B434901B1FBF3F19C
S2140163F00B4A2039204602EAC10201211BF04CF962
S214016400A262BDE838401BF047B90623ECE710232B
S214016410EAE70823E8E70423E6E700BF0000035A9B
S214016420F8FF7F00F8B5436804460D4616461BB1D3
S21401643040F2FF711BF030F92046FFF79FFFE98914
S2140164406B7B22690B43298A22F44C520B4322F0C0
S214016450030213432361A268297E2B7B22F080422C
S2140164600B4322F0E20213436A6904F58051134399
S214016470AA68A360EB69002A34D1A06840F0004006
S214016480A060002B33D15EB396F82030DBB1012338
S2140164908B614B60204629781BF01FF9236CDB4388
S2140164A013F4405FFAD1F8BD96F820305BB10123B2
S2140164B08B614B6020466968FFF77AFFEAE796F83A
S2140164C02030002B78D196F82230606996F821604A
S2140164D020F009003343034343F001034B6161E0BD
S2140164E00123D6E71BB9002EDED10123E1E7987A16
S2140164F01F7A4004D4F808C040EA8750304F0CEAAF
S214016500070738439F8807F4C04738435F7840EA57
S21401651087005F7B40EAC7009F7B40EA07109F78B1
S21401652040EA8720A060D4F80CC0D3E904073843BA
S2140165302CF4D81727F4C06738439F7940EA8720A0
S214016540DF7940EA4720E0601878012805D1E06845
S21401655040F00400E0601B4806E0032828D1E0680C
S21401656040F00400E06018480127C0F8C070587A6F
S214016570086218B1E06840F40060E060D87A48B17B
S214016580E068124F40F40040E060187B00F00F0016
S214016590C7F88000E069DB7B20F003000343E3617A
S2140165A0002E8CD101234B60002A3FF473AF81E7A4
S2140165B002380128D7D9CEE701238B61F2E700BF65
S2140165C0E39BBDFF00E4035000D40350009003504A
S2140165D0F8B504460D461F4616464AB101238B40C0
S2140165E03021184A01FB0022F7B141F21001535045
S2140165F004EB4403072D4FF00F014FEA031316D89F
S214016600A80006FA00F281400F4818441BF091F8E2
S2140166104EB9012330210B4AAB4001FB042277B16E
S21401662041F210015350F8BD42F21001DFE7A5F127
S2140166300800800006FA00F281400448E5E742F2CD
S2140166401001EFE700C0035004C003500CC0035014
S21401665010B5152001F06AFD0024FF22064B2146E5
S2140166605C6520209A625C60FFF774F82146BDE8FD
S21401667010402120FFF76EB800000450044A054B75
S214016680002908BF1346012282401A60704700BFE6
S214016690401004504020045010B50121044620202B
S2140166A0FFF758F801212120FFF754F80122114B7A
S2140166B015205A60227812069A606178A27842EA1A
S2140166C001429A61FF229A6200229A631A644FF08D
S2140166D000425A654FF0FF3203F500531A6501F088
S2140166E07DFD1520E1781BF059F9BDE81040152015
S2140166F001F02EBD00000450F8B50125C3B21E4FAF
S214016700D1F800C09D408E7ACB7A0C46097B3D6558
S21401671007F5005747F820C04FF0300C0CFB00F08F
S2140167201B05677B00F1A04043EA064300F5802085
S21401673043EA415322F003020766C365026728F065
S2140167403DF80E4B227A5D6502B11D64627A02B194
S2140167509D632279A37943EA0243074A93616179EB
S214016760E37943EA014305498B61054B55639D6413
S214016770BDE8F84028F01DB8002004500010045071
S2140167800000045010B50124C0B2844028F016F869
S214016790044B5A6D22EA04025A659C62BDE8104019
S2140167A028F007B80000045010B50124C0B2844098
S2140167B028F004F8074BDA6A224208D15B6B9C4347
S2140167C00CBF0124002427F0F4FF204610BD00244E
S2140167D0F9E700BF0000045070B5054627F0EEFF4C
S2140167E03022084B5E6B02FB05335C6E27F0E1FF3F
S2140167F00123EDB2AB4033420ABFC4F30A100020B6
S214016800013070BD000004504FF40032054B9A660B
S21401681041F6713203F51C33DA63012203F50053A6
S214016820DA6070470090005041F671320121064B44
S214016830DA6303F50052D1600022DA634FF40032C6
S214016840A3F518339A66704700000350CB784A7850
S21401685010B55B010C7843EA82030A79234343EAC5
S21401686002130C22424302F1B0421363012C02BF11
S2140168708A78024B43F8202010BD00BFE880035001
S21401688008B54FF0B0435A686AB958B15B680BB1A6
S2140168901AF05EFF01210D4B59601AF059FF4FF0B7
S2140168A0B043D96008BD5B680BB11AF051FF0028F0
S2140168B0F0D11AF04DFF4FF0B0430222DA601AF021
S2140168C047FF0122024B5A60ECE700BF0010005858
S2140168D0002000584FF0B0414B6810B50BB11AF0CC
S2140168E037FF01220B4BC4785A608378934043EA02
S2140168F0840344782343047943EA0413447943EA3E
S214016900C4038B60044B5A600378C3F10203CB6067
S21401691010BD00BF00200058001000584FF4803210
S214016920064B5A6603F5E6235B69C3F3851282704C
S21401693003F03F021B0B427003707047009000503B
S214016940014B986CD96C70470080E00F024B1868B9
S214016950C0F30740704700BF0080E00F0120034BE3
S2140169609B680A3303F01F03984070470080E00FCE
S21401697070B5054616461C4621B94FF42070FEF741
S21401698009FF0146402C1BD003D8DCB1202C1BD0BC
S21401699070BD602CFCD1042303FB06F2530803EB05
S2140169A04113B3FBF2F36021084A203B02EAC3031A
S2140169B005F50052916005F580529460EB61E7E7BA
S2140169C00623E9E71023E7E70823E5E7F8FF7F005A
S2140169D0F8B5154E1C4615460E40FAB9202B05D0C3
S2140169E0402B1ED0002B0CBF10244024012306F59B
S2140169F080765E4300233246194603F071FF02FBA0
S214016A0005F100FB04F704FB0311A2FB04040023B9
S214016A103246214403F064FF3844F8BD8024002543
S214016A20E4E780240323E2E7F8FF7F00012200F574
S214016A3080535A6040F6AA6341F20502436100237F
S214016A400B498360C365C26000F500520361C361F0
S214016A50C364916407498365884203D103650023B3
S214016A60436502E004498842F8D001235360704729
S214016A70FFFF010000C005500000065070B50D462E
S214016A80FFF7D4FF012300F580567360AB7C044604
S214016A901BB1836843F080438360EB7C4BB1344A7F
S214016AA02B7D944243D1A2F51032C2F88C3180235B
S214016AB0F3652A8A6B7B20461343EA891343E36016
S214016AC02B7BD5E90112FFF753FF6B7D1BB1A36842
S214016AD043F48033A360AB7D1BB1A36843F400434A
S214016AE0A360EB7D2A7E1B07120502F4E00203F089
S214016AF0E0431343A365697E1D4A8B1E012B1D4B84
S214016B001FD894421BD002F5804294420CBF01224A
S214016B104FF0FF3203EB4213022041F21C620329BD
S214016B20985020D10423F3652B78636170BD124A17
S214016B30944204BFA2F52032C2F89C31B7E7002286
S214016B40E8E794420DD00C4A94420CBF01224FF064
S214016B50FF3203EB4213022042F21C6201299850D5
S214016B60DFE70022F5E7042204F50053DA65DBE7E8
S214016B7000C0055000C003500000065038B50D4651
S214016B80FFF754FF012300F5805253602B8A81687A
S214016B9043F001030B43A97B044643EA8123836048
S214016BA08368297D43EA41738360AB7C4BB11C4902
S214016BB0EB7C88422BD1A1F51031C1F88C318023B2
S214016BC0D3652B7B2046D5E9011243F48053E3605D
S214016BD01AF0D7FD6B7B0BB1102363616B7D1BB184
S214016BE0A36843F48033A360AB7D1BB1A36843F471
S214016BF00043A360EB7D2A7E1B07120503F0E043EA
S214016C0002F4E0021343A3652B78636138BD05499E
S214016C10884204BFA1F52031C1F89C31CFE700BFFF
S214016C2000C0055000000650034BD3F82424D3F8C7
S214016C3020041040704700BF00C003502DE9F84300
S214016C401E4B0546D3F810334B1E0E2B0E46174629
S214016C5090F8009044781DD909B34FF000082846F3
S214016C60D7B127F0E4FD09EB4903072C4FF00F01DC
S214016C704FEA031315D8A400114808FA04F2A140FC
S214016C8018441AF0ACFDBEB928468FB1BDE8F843EA
S214016C9027F0CDBD8846E2E71AF0B0FDE3E7884667
S214016CA0E1E7083CA400074808FA04F2A140E7E738
S214016CB0BDE8F8431AF0A2BDBDE8F88300C0035052
S214016CC004C003500CC003502DE9F0412B4B17466E
S214016CD0D3F810234A1C06460C46407804D1D3F854
S214016CE024141AF099FD0446002C2FDB072C4FF0D4
S214016CF0030532782DDC4FEA840805FA08F52946A3
S214016D001F4802FA08F21AF06AFD294672781D48F1
S214016D1002F0030202FA08F21AF061FD012317F0ED
S214016D20050F194A18BF194903FA04F30CBFC2F834
S214016D301034C1F8103417F0060F18BF134AC2F802
S214016D4014340123104AA340C2F820342046BDE87B
S214016D50F081A4F108084FEA880805FA08F52946E3
S214016D600B4802FA08F21AF03AFD7278294602F048
S214016D700302084802FA08F2CEE700BF00C003503B
S214016D8000C4035008C4035000E0035000D0035071
S214016D9004C403500CC403504FF48032084B5A66A7
S214016DA003F5E6235B691A0B027003F03F0242709B
S214016DB04FF6FF72C3F3851342808380704700BF8E
S214016DC000900050014B986CD96C70470080E00F22
S214016DD070B5044623F0E4FB064630B90FCC044DEB
S214016DE00FC594E8030085E80300304670BD00BF78
S214016DF0FC17002047F6FF739A42F0B56FD00229C0
S214016E006FD8394B5B5C012B6BD8384DDF0005EB37
S214016E10C30415F83330A178012B13D10025E0788F
S214016E20401AA84202D80844C0B2F0BD431B6668A7
S214016E30A0EB530336F913609642D4BF1D4603F107
S214016E40FF30EEE760680028EFD0B0F900409442CA
S214016E5004DBB0F902409442B8BF144683883D442F
S214016E60FF2B19BFC8224FF0280CB0F90620B0F945
S214016E7008C0A2EB04030CBF0126002693FBFCF31B
S214016E8033446E781BB29E4201DD002B01DA731E7D
S214016E901BB24FF47A7C01339BB2071D5D1E2DB2E7
S214016EA04FEAC50E00EBC505EA88AD689E4214FBA5
S214016EB0025222EAE27202F15C02B2FBFCF204DD4B
S214016EC037F8335001339542E8D200EB0E03988829
S214016ED0904228BF1046884238BF0846A4E7FF20E4
S214016EE0A3E70020A1E700BFB4ED0300FC170020D4
S214016EF00229F0B555D82C4B585C012851D82B4C9B
S214016F0004EBC00114F830004B6801280FD1C87893
S214016F108C78904294BFC4EB0001C4EB0201001BC5
S214016F20CAB28242C8BF002233F91200F0BD002B5C
S214016F3037D08878904202D3B3F90200F6E7CC78CE
S214016F40B3F900009442F1D94C789988013CA1F13B
S214016F50FF06714203F10405E4B2714103F10C0727
S214016F60CEB2B44216D805EBC1014FF47A756A4326
S214016F70B1F902404968521A04EBD47102EB61027E
S214016F8092FBF4F29042D1DBB3F902009042CDDCE1
S214016F9010B2CBE737F831C04E1C9445E3D33146E7
S214016FA0DEE70348C2E700BFB4ED0300FC1700208C
S214016FB00080FFFF08B50448FFF70AFFBDE8084058
S214016FC0012023F0F1BA00BFB8ED03000048704776
S214016FD0A42E00207FB50222084B0949CDE90123E2
S214016FE04FF00073CDE90313052301A94FF0FF30DD
S214016FF0059323F030FB07B05DF804FB006A180028
S2140170000002040006289ABF014B185C0020704756
S2140170103CEE03004FF40052034B00209A66032215
S214017020C3F86022704700BF009000504FF4005232
S214017030034B00209A660322C3F86022704700BF04
S21401704000A0005000F01F02A0F50620A0F5506039
S214017050812810D8012309494009934051F820207E
S2140170601A4341F82020064951F8202022EA03025B
S21401707041F8202070474FF0FF3070472C18002051
S2140170801818002000F01F03A0F50620A0F5506098
S214017090812810B519D801210D4A4009994052F8A6
S2140170A020300B430B4942F82030D1E900432344FA
S2140170B08C682344CC68096923445B1804D1C2E96F
S2140170C00033C2E90233136110BD4FF0FF30FBE716
S2140170D0181800202C1800202DE9F04FA7B00392B5
S2140170E01F4604460822CDE90401414021FA02F375
S2140170F04B40980702F1080218BF9B00202A1C4447
S214017100F4D18123B4FBF3F303EBC313E41A7F4BEF
S21401711004F506241B7804F55064002B39D1FDF7DD
S2140171205DFC054600286FD10146402206A81CF0EA
S2140171300EFE2946402216A81CF009FE744D754E17
S214017140A8461035AE4228BF2E467348013E00962B
S21401715043461022006806A919F092FF4FF0000B73
S21401716081460DF1180AD94541D16B480096434630
S2140171701022006816A919F08CFF4FF0000883460C
S21401718016AEC34546D1654B9D42D8D101225F4B11
S2140171901A704FF081080026DFF894B1A4F5062591
S2140171A0A5F550635B095BF8232004F01F01CA4074
S2140171B0D20746D45A4A52F82330CB40DB0732D5A1
S2140171C08123002E08BF2646A5F6FF44B4FBF3F341
S2140171D003EBC313E41A04F50624B8F1010804F519
S2140171E05064DBD1039B03B3FEB1344625E05AF865
S2140171F0040BFFF727FF013009D10022434B1A7019
S214017200424B1B78002BC4D16FF091000FE00BF1BD
S214017210010BA8E756F8040BFFF734FF0130EFD057
S21401722008F10108ADE7039B23B96FF08B0027B087
S214017230BDE8F08F002E18BF3446329B00201C603C
S214017240F5E7309B13B10023309A1360319B13B1DD
S2140172500023319A13604FF0100ADFF8BC90CDF886
S21401726000A000233A462146D9F80000FDF7BAF9F6
S214017270002838D130993A682A4BE9B19A42C1F8C8
S21401728000A01CD02146D9F80000FDF703FB00281A
S214017290CBD1D7E90223DDE90410834208BF8A4235
S2140172A02AD08123A5F6FF45B5FBF3F303EBC31301
S2140172B0ED1A05F5062490E79A42EAD0E2E7319BFB
S2140172C0002BE6D02146D9F8000016AAFDF7D0F922
S2140172D048B9319B309A1B681268934294D39B1A23
S2140172E0319A1360D5E7104B9842CBD06328C9D0AA
S2140172F00E4B9842CDD087E7039B002B9DD07B6831
S214017300012B9AD16FF0840091E700BF9C280020E2
S214017310006D0800816D0800E02B0020906D0800CC
S21401732018180020105D175EFFDF00F0FEDF00F08A
S2140173302C1800202DE9F04F87B0824689469846E2
S2140173401646DDF840B02AB1002B53D040F26C73DC
S2140173509A4252D8BBF1010F52D8002406F1100709
S2140173603946012005941AF0A4FF054600284AD0A4
S21401737021463A461CF0EBFC05ABCDE901430094EF
S2140173802B46012250464946FFF7A6FE044680B129
S21401739010F18C0F08BF6FF08D043A460021284685
S2140173A01CF0D5FC28461AF066FF204607B0BDE85B
S2140173B0F08F164BC5E902A92B60C5F804B02EB1B3
S2140173C03246414605F110001CF0CCFC059E1048E3
S2140173D03B462A4631460068FDF718FA38B930466A
S2140173E0FFF730FE013008BF6FF08604D5E76FF077
S2140173F09104D2E76FF08604D7E76FF09104D4E7E3
S2140174006FF08504D1E76FF08C04CEE7105D175E50
S214017410E02B00202DE9F0438DB08146DDE914789C
S2140174200E4615461C469BB1B8F1000F05D16FF00C
S214017430860630460DB0BDE8F083002FF7D0B7F1D1
S214017440005FF4D3C3F1005303F500439F42EED827
S2140174501022002108A81CF07AFC002207AB029338
S21401746005AB019306AB31460093484608ABCDE920
S2140174700522FFF731FE06460028DAD1059BA4B1A6
S214017480AB4215D853EA0504D1D1069B0B48C8F880
S214017490004000943A46079900682B44FDF7A2F88D
S2140174A0002818BF6FF09106C3E7AB42EDD2BEE7E6
S2140174B05B1B9C4228BF1C46E7E700BFE02B002071
S2140174C030B58DB00C4605461022002108A81CF0E8
S2140174D03EFC002207AB029305AB019306AB2146A7
S2140174E00093284608ABCDE90522FFF7F5FD0446D3
S2140174F008BB099B012B21D0079D134B2946186811
S214017500FDF7C8F9E8B9A5F50623A3F55063812B65
S21401751005F01F020DD801210C485B09914050F877
S21401752023204A4040F823202846FFF7ABFD0130D0
S21401753001D16FF0860420460DB030BD6FF0840493
S214017540F9E76FF09104F6E7E02B00202C180020F5
S2140175502DE9F04F89B007460E4601F0ABFFC00794
S21401756009D4042401201BF06CFB80B3013CF9D143
S2140175706FF0920028E0102200210DEB02001CF0B3
S214017580E6FB04A801F0F8FF049B002BE9D0059B5D
S214017590002BE6D0069B002BE3D0079B002BE0D008
S2140175A00025DFF8808008F10409B54219D34FF4AD
S2140175B08A7401F079FF00F00E03062B2DD1C30566
S2140175C001D501F0A3FF002009B0BDE8F08F01F05E
S2140175D06BFF10F00E03FAD0022BF8D04105DFD571
S2140175E0C4E701F05BFFA6EB050A8400544528BFFB
S2140175F0544699E8030000238DE80300CDE90543CE
S21401760007EB050BCDF810B0029404AAD8F80030A9
S21401761007CA1BF00FFA2544C7E724FA03F3DA0773
S214017620A6D5C6E768EE03002DE9F0438BB01746F2
S214017630DDE91545DDE913269C46DDE9173889465F
S21401764021B96FF086000BB0BDE8F083002FF8D0AB
S2140176500EB9002CF5D1129909B9002AF1D10DB94C
S214017660002BEED1B8F1000FEBD0244A944541D15E
S2140176700288B2F5105F3DD14288B7EBD20FE0D356
S21401768022F04001802902D0B2F5807FD9D16CB3B7
S214017690AE421CD23219954219D29C42D1D83146FB
S2140176A0224628461CF039FB2E4614F00F03C8D19B
S2140176B0CDE90197CDE90336CDE90543CDE9075478
S2140176C00993FFF7A7FC38B16FF09200BBE79C4225
S2140176D0EBD96FF08900B6E707AA04A901A802F062
S2140176E00FF80546FFF7A2FC0543EDD10020C8F8C8
S2140176F00040A8E76FF08500A5E700BF00444004FE
S2140177002DE9F04FA9B0834617469A460E46DDF896
S214017710C890DDF8D88029B96FF08603184629B0DD
S214017720BDE8F08F002AF7D0B9F1000FF4D0349BF2
S214017730002BF1D0B8F1000FEED00024424B0CAD77
S21401774093E8070085E807003C22214619A818940B
S2140177501CF0FDFA3388728803F4E040B0F5804FE0
S214017760DAD03A4E3A480BEA060646F010668642EA
S21401777063D1B2F5807F60D147F2121293425CD199
S2140177800620344ABAF11F0FD3680E940B9313697F
S214017790126800FB03F3CDE90C23BDD9339B402BC4
S2140177A0BAD9359B1F2B4BD909F10102202612921B
S2140177B0402299F800300F97042B18AFCDE9132417
S2140177C0CDE91572109611941794A5D1FFF722FCF6
S2140177D003460028A2D10B9B15AACDE9086305AB89
S2140177E007CA83E8070002AB12AA07CA83E80700A4
S2140177F0DDE910018DE803000F9B95E8070002F014
S21401780059F80546FFF712FC55EA000384D13D46B8
S214017810349A20AE2C4603CCB44210605160254603
S21401782002F10802F6D100221146B9540132402A6B
S214017830FBD12022C8F8002070E76FF085036DE7C2
S2140178406FF089036AE700BF5CF003000000FFF6F3
S2140178500000020970F00300F0B50E461D468BB01D
S214017860002853D0002951D0002A4FD0002B4DD0EC
S214017870048804F44F43B3F5824F03D06FF08500BC
S2140178800BB0F0BDE3B224F0FF04B4F5E24FB0F85C
S21401789002C0F3D1122B01D0172BEFD10CF1070147
S2140178A0B2EBD10F4FEAD10733D31D4A04ACBCF576
S2140178B0807F07CA84E80700E0D1122B07D1194B55
